:020000040800F2
:1000000000500020F5130008611300086713000872
:100010006D13000873130008791300080000000036
:100020000000000000000000000000007F13000836
:100030008B1300080000000097130008A3130008AA
:100040003D1400083D1400083D1400083D1400084C
:100050003D1400083D1400083D1400083D1400083C
:100060003D1400083D1400083D1400083D1400082C
:100070003D1400083D1400083D1400083D1400081C
:100080003D1400083D1400083D1400083D1400080C
:100090003D1400083D1400083D1400083D140008FC
:1000A0003D1400083D1400083D1400083D140008EC
:1000B000B1130008C51300083D1400083D140008E2
:1000C0003D1400083D1400083D1400083D140008CC
:1000D0003D1400083D1400083D1400083D140008BC
:1000E000D91300083D1400083D140008000000006A
:1000F0000000000000000000000000000000000000
:0C01000000000000000000005FF808F1A3
:10010C0010B5054C237833B9044B13B10448AFF345
:10011C0000800123237010BD90000020000000001F
:10012C00FC33000808B5034B1BB103490348AFF37C
:10013C00008008BD0000000094000020FC33000883
:10014C0080B483B000AF7860044A7B68012142F828
:10015C00231000BF0C37BD4680BC7047BC0000208C
:10016C0080B483B000AF7860094A7B6852F82330C2
:10017C00012B06D1064A7B68002142F8231001238B
:10018C0000E0002318460C37BD4680BC704700BF0A
:10019C00BC00002080B582B000AF00237B60AEE0D5
:1001AC005B4A7B6852F823205A497B6841F823202C
:1001BC00594A7B6852F8232055497B6841F8232023
:1001CC007B68032B36D801A252F823F0E901000812
:1001DC00FF010008150200082B02000802214F48FD
:1001EC0001F01CFC034619464B4A7B6842F823106D
:1001FC0021E01021494801F011FC03461946464AFA
:10020C007B6842F8231016E00121454801F006FCFA
:10021C0003461946404A7B6842F823100BE0012143
:10022C003E4801F0FBFB034619463B4A7B6842F80B
:10023C00231000E000BF374A7B6852F82320344972
:10024C007B6851F823309A4256D1314A7B6852F878
:10025C00232031497B6851F823309A424CD12E4AE5
:10026C007B6852F823202F497B6851F823309A423F
:10027C0029D0294A7B6852F823202A497B6841F807
:10028C002320254A7B6852F82330002B15D1264AAF
:10029C007B6852F82330002B06D1244A7B684FF43C
:1002AC00967142F8231004E0204A7B68642142F8DE
:1002BC0023107868FFF744FF1EE01B4A7B6800217F
:1002CC0042F8231018E0194A7B6852F823305A1E62
:1002DC0016497B6841F82320144A7B6852F8233076
:1002EC00002B09D10F4A7B68012142F823100E4ADA
:1002FC007B68012142F823107B6801337B607B68AB
:10030C00032B7FF74DAF00BF00BF0837BD4680BD44
:10031C0010000020000000202000002000080140F8
:10032C00000C014030000020AC00002040000020F8
:10033C0080B500AF8E4B1B68013B032B00F20D8187
:10034C0001A252F823F000BF65030008E303000884
:10035C0061040008E3040008864B1B68012B15D1CF
:10036C004FF47A7000F042FE834B1B680133824AD3
:10037C001360814B1A68814B1B689A4202D17C4BEB
:10038C0002221A6000F002FD00F060FD0020FFF771
:10039C00E7FE0346002B0AD0754B0C221A60754BF6
:1003AC0001221A60764B1B68184600F039FE0320B8
:1003BC00FFF7D6FE0346002B00F0D180714B1622BE
:1003CC001A60714B1B684FF47A6202FB03F31846F8
:1003DC0000F026FEC3E0674B1B68012B15D14FF4D0
:1003EC007A7000F003FE644B1B680133624A1360A1
:1003FC00614B1A68644B1B689A4202D15C4B032216
:10040C001A6000F0C3FC00F031FD0020FFF7A8FEDD
:10041C000346002B0AD0564B0C221A60554B012276
:10042C001A60574B1B68184600F0FAFD0320FFF7C3
:10043C0097FE0346002B00F09480524B16221A6054
:10044C00514B1B684FF47A6202FB03F3184600F021
:10045C00E7FD86E0474B1B68012B18D14FF47A70EF
:10046C0000F0C4FD444B1B680133434A1360424BFC
:10047C001A68454B1968414B1B680B449A4202D1D0
:10048C003B4B04221A6000F095FC00F0CFFC0020DE
:10049C00FFF766FE0346002B0AD0354B0C221A6080
:1004AC00344B01221A60364B1B68184600F0B8FD1D
:1004BC000320FFF755FE0346002B54D0314B152279
:1004CC001A60314B1B684FF47A6202FB03F3184637
:1004DC0000F0A6FD47E0274B1B68012B19D14FF408
:1004EC007A7000F083FD244B1B680133224A1360A1
:1004FC00214B1A68244B1B685B009A4205D11C4B9C
:10050C0001221A601C4B00221A6000F067FC00F0FC
:10051C008DFC0020FFF724FE0346002B0AD0144B61
:10052C000C221A60134B01221A60154B1B681846DB
:10053C0000F076FD0320FFF713FE0346002B14D0CA
:10054C00104B15221A60104B1B684FF47A6202FB99
:10055C0003F3184600F064FD07E000BF06E000BF9F
:10056C0004E000BF02E000BF00E000BF00BF80BDA0
:10057C005C000020D4000020D00000206C00002083
:10058C0058000020600000206800002080B500AFFB
:10059C00794B1B680E2B00F09B800E2B00F3E28036
:1005AC000C2B02D00D2B4AD0DCE00020FFF7D8FD3D
:1005BC000346002B0AD0714B1B68184600F030FD27
:1005CC006D4B0D221A606E4B01221A600120FFF751
:1005DC00C7FD0346002B09D0684B1B68184600F07A
:1005EC001FFD684B1B680133664A13600220FFF73E
:1005FC00B7FD0346002B09D0604B1B68184600F072
:10060C000FFD604B1B68013B5E4A13605E4B1B6821
:10061C00012B08D1584B01221A605C4B00221A6046
:10062C00574B01221A60564B1B68012B40F09C80E3
:10063C004FF4FA7000F0DAFC00F038FC94E0002083
:10064C00FFF78EFD0346002B0AD04C4B1B68184657
:10065C0000F0E6FC484B0E221A60494B01221A604E
:10066C000120FFF77DFD0346002B09D0434B1B688F
:10067C00184600F0D5FC464B1B680133444A136006
:10068C000220FFF76DFD0346002B09D03B4B1B6886
:10069C00184600F0C5FC3E4B1B68013B3C4A1360FE
:1006AC00394B1B68012B08D1334B01221A60374B95
:1006BC0000221A60324B01221A60314B1B68012B4D
:1006CC0054D14FF4FA7000F091FC00F00DFC4DE0A9
:1006DC000020FFF745FD0346002B0BD02A4B0122CF
:1006EC001A60254B01221A60284B00221A60244BF9
:1006FC0001221A600120FFF733FD0346002B09D0BD
:10070C001E4B1B68184600F08BFC224B1B680133F8
:10071C00204A13600220FFF723FD0346002B09D06B
:10072C00164B1B68184600F07BFC1A4B1B68013BF0
:10073C00184A1360144B1B68012B08D10E4B012275
:10074C001A60124B00221A600D4B01221A600C4BDE
:10075C001B68012B0CD14FF4FA7000F047FC00F031
:10076C00E1FB05E000BF04E000BF02E000BF00E0D9
:10077C0000BF00BF80BD00BF5C0000205000002007
:10078C00D400002068000020DC000020D0000020F5
:10079C006C0000207000002080B500AF394B1B6846
:1007AC00162B37D0162B69DC142B61D0152B65D189
:1007BC00354B1B68012B07D100F0D2FB334B1F22AA
:1007CC001A60314B00221A60314B1B68012B02D18D
:1007DC002C4B14221A602F4B1B68042B14DC2D4B52
:1007EC001B68002B10DD2C4B1A682C4B1B689A4293
:1007FC000EDC294B1B68002B0ADD224B16221A60DB
:10080C00214B01221A6003E01E4B14221A6036E0C1
:10081C0000BF34E01C4B1B68012B0AD100F0B4FB69
:10082C00C82000F031FC194B1E221A60164B002216
:10083C001A60184B1B68042B14DC164B1B68002B1E
:10084C0010DD164B1A68144B1B689A4203DB124BD3
:10085C001B68002B0AD10B4B15221A600A4B012284
:10086C001A6003E0074B14221A6008E000BF06E090
:10087C00054B01221A6000F09BFB00E000BF00BF9B
:10088C0080BD00BF600000205400002064000020E8
:10089C00DC0000205C000020D0000020680000205C
:1008AC0080B500AF234B1B681E2B02D01F2B34D0FE
:1008BC003DE0214B1B68012B38D1204B1B68052BCD
:1008CC000DDCC82000F0E0FB1D4B1B6828331C4AD4
:1008DC0013601B4B1A681B4B1B685A6326E0174BA3
:1008EC001A68194B1B68D31A052B1FDCC82000F0A3
:1008FC00CBFB134B1B682833114A1360104B1B683E
:10090C00B3F57A7F03DB0E4B4FF461721A600C4B1C
:10091C001A680C4B1B685A6308E0094B00221A60DA
:10092C00074B1A68074B1B685A6300E000BF00BFF7
:10093C0080BD00BF64000020EC0000206800002097
:10094C00CC000020FC000020D000002080B500AFBF
:10095C0000F070FD00F03AF800F066F900F03AF99A
:10096C0000F0C2F800F074F8124801F02BFD0021E1
:10097C00114801F0D1FD114B01221A60104B0122DC
:10098C001A60104B01221A600F4B01221A60FFF7FC
:10099C00CFFCFFF7FBFDFFF7FFFEFFF781FF094BD5
:1009AC001B68012BF3D14FF47A7000F053FB00F06D
:1009BC0013FBECE744010020FC000020D4000020D5
:1009CC00DC000020E4000020EC00002080B590B09A
:1009DC0000AF07F1180328220021184602F000FD91
:1009EC003B1D00221A605A609A60DA601A61022379
:1009FC00BB610123BB621023FB6202237B630023D8
:100A0C00BB634FF46013FB6307F11803184601F046
:100A1C006FF80346002B01D000F0B2F90F237B6076
:100A2C000223BB600023FB604FF480633B61002317
:100A3C007B613B1D0221184601F0DAFA0346002BBC
:100A4C0001D000F09DF900BF4037BD4680BD0000CD
:100A5C0080B586B000AF07F1080300221A605A6017
:100A6C009A60DA603B4600221A605A601D4B4FF0C8
:100A7C0080421A601B4B4FF6FF125A60194B002232
:100A8C009A60184B0A22DA60164B00221A61154B39
:100A9C0000229A61134801F045FC0346002B01D05B
:100AAC0000F06EF94FF48053BB6007F10803194650
:100ABC000C4801F099FF0346002B01D000F060F9BF
:100ACC0000233B6000237B603B461946054802F03F
:100ADC0017FB0346002B01D000F052F900BF18376A
:100AEC00BD4680BD4401002080B58EB000AF07F13B
:100AFC00280300221A605A609A60DA6007F120031A
:100B0C0000221A605A603B1D00221A605A609A60DB
:100B1C00DA601A615A619A612C4B2D4A1A602B4B80
:100B2C003F225A60294B00229A60284B40F2E73250
:100B3C00DA60264B00221A61244B00229A6123486A
:100B4C0001F0F0FB0346002B01D000F019F94FF433
:100B5C008053BB6207F1280319461C4801F044FF7F
:100B6C000346002B01D000F00BF9184801F07CFC77
:100B7C000346002B01D000F003F900233B62002355
:100B8C007B6207F120031946104802F0B9FA0346BC
:100B9C00002B01D000F0F4F860237B600023BB60D5
:100BAC000023FB6000237B613B1D00221946074894
:100BBC0001F05CFE0346002B01D000F0E1F8034885
:100BCC0000F058FB00BF3837BD4680BDFC0000204C
:100BDC000004004080B500AF114B124A1A60104B54
:100BEC004FF4E1325A600E4B00229A600C4B0022FB
:100BFC00DA600B4B00221A61094B0C225A61084B2C
:100C0C0000229A61064B0022DA61054802F0E8FAEC
:100C1C000346002B01D000F0B3F800BF80BD00BF2D
:100C2C008C0100200044004080B588B000AF07F173
:100C3C00100300221A605A609A60DA60454B9B6977
:100C4C00444A43F010039361424B9B6903F0100339
:100C5C00FB60FB683F4B9B693E4A43F0200393616A
:100C6C003C4B9B6903F02003BB60BB68394B9B6911
:100C7C00384A43F004039361364B9B6903F0040339
:100C8C007B607B68334B9B69324A43F0080393616A
:100C9C00304B9B6903F008033B603B6800224FF428
:100CAC00A4612D4800F0D1FE00224FF487612B483F
:100CBC0000F0CBFE4FF400533B61294B7B610023CA
:100CCC00BB6107F110031946264800F023FD1323DE
:100CDC003B6100237B610123BB6107F110031946C3
:100CEC001D4800F017FD4FF4A4633B6101237B61A9
:100CFC000023BB610223FB6107F110031946164860
:100D0C0000F008FD01233B6100237B610123BB61E3
:100D1C0007F110031946114800F0FCFC4FF48763EF
:100D2C003B6101237B610023BB610223FB6107F163
:100D3C0010031946094800F0EDFC00220021282080
:100D4C0000F0B1FC282000F0CAFC00BF2037BD46E3
:100D5C0080BD00BF0010024000080140000C0140A3
:100D6C00000011100010014080B582B000AF786017
:100D7C00FFF710FA00F0A2F900BF0837BD4680BD9E
:100D8C0080B400AF72B600BFFEE7000080B500AFC4
:100D9C0001224FF48061054800F057FE0022082123
:100DAC00034800F052FE00BF80BD00BF00080140A8
:100DBC00000C014080B500AF00224FF48061054863
:100DCC0000F043FE01220821034800F03EFE00BF64
:100DDC0080BD00BF00080140000C014080B500AF91
:100DEC0001224FF48061054800F02FFE01220821FA
:100DFC00034800F02AFE00BF80BD00BF0008014080
:100E0C00000C014080B500AF00224FF48061054812
:100E1C0000F01BFE00220821034800F016FE00BF64
:100E2C0080BD00BF00080140000C014080B500AF40
:100E3C0000221021044800F008FE01222021024863
:100E4C0000F003FE00BF80BD000C014080B500AF78
:100E5C0001221021044800F0F8FD00222021024854
:100E6C0000F0F3FD00BF80BD000C014080B500AF69
:100E7C0001221021044800F0E8FD01222021024843
:100E8C0000F0E3FD00BF80BD000C014080B500AF59
:100E9C0000221021044800F0D8FD00222021024835
:100EAC0000F0D3FD00BF80BD000C014080B500AF49
:100EBC000C4B1B68012B04D1FFF768FFFFF7B6FF43
:100ECC0003E0FFF79FFFFFF7E1FF064B1B68002BCA
:100EDC000CBF01230023DBB21A46024B1A6000BF81
:100EEC0080BD00BF7400002080B500AF0C4B1B68A8
:100EFC00012B04D1FFF75EFFFFF7A8FF03E0FFF71C
:100F0C0081FFFFF7C3FF064B1B68002B0CBF0123AF
:100F1C000023DBB21A46024B1A6000BF80BD00BF33
:100F2C007C00002080B500AF0C4B1B68012B04D15A
:100F3C00FFF754FFFFF79AFF03E0FFF763FFFFF79C
:100F4C00A5FF064B1B68002B0CBF01230023DBB253
:100F5C001A46024B1A6000BF80BD00BF780000200B
:100F6C0080B500AF01224FF48061054800F06DFDA3
:100F7C0000224FF48071034800F067FD00BF80BD74
:100F8C00000C01400008014080B500AF00224FF476
:100F9C008061054800F059FD01224FF4807103482F
:100FAC0000F053FD00BF80BD000C01400008014063
:100FBC0080B500AF00224FF48061054800F045FD7C
:100FCC0000224FF48071034800F03FFD00BF80BD4C
:100FDC00000C01400008014080B500AF2021024800
:100FEC0000F04BFD00BF80BD0008014080B483B011
:100FFC0000AF7860074B1B687A6892FBF3F3064AE4
:10100C001360064B00221A6000BF0C37BD4680BC33
:10101C00704700BF80000020D8000020D4000020C2
:10102C0080B483B000AF7860074B1B687A6892FB82
:10103C00F3F3064A1360064B00221A6000BF0C370C
:10104C00BD4680BC704700BF80000020E00000203F
:10105C00DC00002080B483B000AF7860074B1B68C5
:10106C007A6892FBF3F3064A1360064B00221A606F
:10107C0000BF0C37BD4680BC704700BF800000200D
:10108C00E8000020E400002080B483B000AF78605A
:10109C00074B1B687A6892FBF3F3064A1360064B06
:1010AC0000221A6000BF0C37BD4680BC704700BFE1
:1010BC0080000020F0000020EC00002080B400AF85
:1010CC00294B1B68002B0BDD274B1B68013B264A69
:1010DC001360254B1B68002B02D1244B01221A6094
:1010EC00234B1B68002B0BDD214B1B68013B204A5B
:1010FC0013601F4B1B68002B02D11E4B01221A6080
:10110C001D4B1B68002B0BDD1B4B1B68013B1A4A4C
:10111C001360194B1B68002B02D1184B01221A606B
:10112C00174B1B68002B0BDD154B1B68013B144A3E
:10113C001360134B1B68002B02D1124B01221A6057
:10114C00114B1B68002B0BDD0F4B1B68013B0E4A30
:10115C0013600D4B1B68002B02D10C4B01221A6043
:10116C0000BFBD4680BC7047D8000020D4000020D2
:10117C00E0000020DC000020E8000020E40000205B
:10118C00F0000020EC000020F8000020F40000200B
:10119C0080B485B000AF154B9B69144A43F0010332
:1011AC009361124B9B6903F00103BB60BB680F4B4F
:1011BC00DB690E4A43F08053D3610C4BDB6903F0BF
:1011CC0080537B607B680A4B5B68FB60FB6823F099
:1011DC00E063FB60FB6843F00073FB60044AFB6850
:1011EC00536000BF1437BD4680BC704700100240EE
:1011FC000000014080B584B000AF78607B681B684C
:10120C00B3F1804F14D1194BDB69184A43F0010339
:10121C00D361164BDB6903F00103FB60FB68002212
:10122C0000211C2000F03FFA1C2000F058FA18E0B6
:10123C007B681B680E4A934213D10C4BDB690B4A3B
:10124C0043F00203D361094BDB6903F00203BB607B
:10125C00BB68002200211D2000F025FA1D2000F0A3
:10126C003EFA00BF1037BD4680BD00BF00100240E3
:10127C000004004080B588B000AF786007F110031F
:10128C0000221A605A609A60DA607B681B680F4A09
:10129C00934217D10E4B9B690D4A43F004039361A3
:1012AC000B4B9B6903F00403FB60FB6840233B6121
:1012BC0002237B610223FB6107F1100319460548E9
:1012CC0000F028FA00BF2037BD4680BD0004004066
:1012DC00001002400008014080B588B000AF786073
:1012EC0007F1100300221A605A609A60DA607B687A
:1012FC001B68154A934223D1144BDB69134A43F400
:10130C000033D361114BDB6903F40033FB60FB68E2
:10131C000E4B9B690D4A43F0040393610B4B9B6985
:10132C0003F00403BB60BB680C233B6102237B61AD
:10133C000223FB6107F110031946054800F0EAF996
:10134C0000BF2037BD4680BD004400400010024065
:10135C000008014080B400AFFEE780B400AFFEE7A8
:10136C0080B400AFFEE780B400AFFEE780B400AFFE
:10137C00FEE780B400AF00BFBD4680BC704780B4B0
:10138C0000AF00BFBD4680BC704780B400AF00BF4B
:10139C00BD4680BC704780B500AF00F091F800BF2F
:1013AC0080BD000080B500AF024801F057F900BFC6
:1013BC0080BD00BF4401002080B500AF024801F0A1
:1013CC004DF900BF80BD00BFFC00002080B500AF10
:1013DC004FF4005000F06AFB00BF80BD80B400AF3A
:1013EC0000BFBD4680BC70470C480D490D4A002318
:1013FC0002E0D458C4500433C4188C42F9D30A4ABE
:10140C000A4C002301E013600432A242FBD3FFF725
:10141C00E5FF01F0C1FFFFF799FA704700000020CB
:10142C00900000204434000890000020D4010020DB
:10143C00FEE7000080B500AF084B1B68074A43F07D
:10144C0010031360032000F023F9002000F008F8CB
:10145C00FFF79EFE0023184680BD00BF002002400F
:10146C0080B582B000AF7860124B1A68124B1B78B3
:10147C0019464FF47A73B3FBF1F3B2FBF3F318464E
:10148C0000F03BF90346002B01D001230EE07B68F2
:10149C000F2B0AD8002279684FF0FF3000F003F9C7
:1014AC00064A7B681360002300E0012318460837C6
:1014BC00BD4680BD840000208C00002088000020E8
:1014CC0080B400AF054B1B781A46054B1B681344C0
:1014DC00034A136000BFBD4680BC70478C000020DF
:1014EC00D001002080B400AF024B1B681846BD46EB
:1014FC0080BC7047D001002080B485B000AF78600C
:10150C007B6803F00703FB600C4BDB68BB60BA68BD
:10151C004FF6FF031340BB60FB681A02BB68134312
:10152C0043F0BF6343F40033BB60044ABB68D36031
:10153C0000BF1437BD4680BC704700BF00ED00E013
:10154C0080B400AF044BDB681B0A03F0070318469A
:10155C00BD4680BC704700BF00ED00E080B483B096
:10156C0000AF0346FB7197F90730002B0BDBFB79BF
:10157C0003F01F02064997F907305B09012000FAB6
:10158C0002F241F8232000BF0C37BD4680BC7047E7
:10159C0000E100E080B483B000AF03463960FB711A
:1015AC0097F90730002B0ADB3B68DAB20C4997F944
:1015BC0007301201D2B20B4483F800230AE03B68D7
:1015CC00DAB20849FB7903F00F03043B1201D2B2E3
:1015DC000B441A7600BF0C37BD4680BC704700BF69
:1015EC0000E100E000ED00E080B489B000AFF860ED
:1015FC00B9607A60FB6803F00703FB61FB69C3F118
:10160C000703042B28BF0423BB61FB690433062B9F
:10161C0002D9FB69033B00E000237B614FF0FF32F2
:10162C00BB6902FA03F3DA43BB681A407B699A4040
:10163C004FF0FF317B6901FA03F3D9437B680B4010
:10164C00134318462437BD4680BC704780B582B022
:10165C0000AF78607B68013BB3F1807F01D301233D
:10166C000FE00A4A7B68013B53600F214FF0FF30BB
:10167C00FFF790FF054B00229A60044B07221A607B
:10168C00002318460837BD4680BD00BF10E000E0BF
:10169C0080B582B000AF78607868FFF72DFF00BF8F
:1016AC000837BD4680BD80B586B000AF0346B96033
:1016BC007A60FB7300237B61FFF742FF78617A68E5
:1016CC00B9687869FFF790FF024697F90F30114619
:1016DC001846FFF75FFF00BF1837BD4680BD80B5C9
:1016EC0082B000AF0346FB7197F907301846FFF73D
:1016FC0035FF00BF0837BD4680BD80B582B000AF56
:10170C0078607868FFF7A2FF034618460837BD4695
:10171C0080BD000080B48BB000AF786039600023CE
:10172C007B6200233B6269E101227B6A02FA03F3CC
:10173C00FB613B681B68FA691340BB61BA69FB69C2
:10174C009A4240F058813B685B689A4A93425ED05B
:10175C00984A934275D8984A934258D0964A9342E5
:10176C006FD8964A934252D0944A934269D8944A7D
:10177C0093424CD0924A934263D8924A934246D0B9
:10178C00904A93425DD8122B2AD8122B59D801A219
:10179C0052F823F01B180008F5170008071800086A
:1017AC00491800084F1800084F1800084F18000877
:1017BC004F1800084F1800084F1800084F18000861
:1017CC004F1800084F1800084F1800084F18000851
:1017DC004F1800084F180008FD17000811180008D2
:1017EC00794A934213D02CE03B68DB683B6229E0DA
:1017FC003B68DB6804333B6224E03B68DB680833FE
:10180C003B621FE03B68DB680C333B621AE03B68D1
:10181C009B68002B02D104233B6213E03B689B685E
:10182C00012B05D108233B627B68FA691A6109E038
:10183C0008233B627B68FA695A6103E000233B6230
:10184C0000E000BFBB69FF2B01D87B6801E07B681F
:10185C0004337B61BB69FF2B02D87B6A9B0002E0DF
:10186C007B6A083B9B003B617B691A680F213B69D3
:10187C0001FA03F3DB431A40396A3B6901FA03F3BB
:10188C001A437B691A603B685B6803F08053002B3A
:10189C0000F0B1804D4B9B694C4A43F001039361BE
:1018AC004A4B9B6903F00103BB60BB68484A7B6AE7
:1018BC009B08023352F82330FB607B6A03F003036E
:1018CC009B000F2202FA03F3DB43FA681340FB6020
:1018DC007B68404A934213D07B683F4A93420DD0B9
:1018EC007B683E4A934207D07B683D4A934201D1C4
:1018FC00032306E0042304E0022302E0012300E0BA
:10190C0000237A6A02F0030292009340FA681343B0
:10191C00FB602F497B6A9B080233FA6841F823204D
:10192C003B685B6803F48033002B06D02D4B1A68A0
:10193C002C49BB6913430B6006E02A4B1A68BB6940
:10194C00DB43284913400B603B685B6803F40033AE
:10195C00002B06D0234B5A682249BB6913434B60BA
:10196C0006E0204B5A68BB69DB431E4913404B60B1
:10197C003B685B6803F48013002B06D0194B9A6804
:10198C001849BB6913438B6006E0164B9A68BB6918
:10199C00DB43144913408B603B685B6803F4001312
:1019AC00002B21D00F4BDA680E49BB691343CB6077
:1019BC0021E000BF000032100000311000002210A6
:1019CC000000211000001210000011100010024045
:1019DC000000014000080140000C014000100140D3
:1019EC0000140140000401400B4BDA68BB69DB4377
:1019FC0009491340CB607B6A01337B623B681A68F0
:101A0C007B6A22FA03F3002B7FF48EAE00BF00BF7B
:101A1C002C37BD4680BC70470004014080B485B0B3
:101A2C0000AF78600B467B807B689A687B8813409C
:101A3C00002B02D00123FB7301E00023FB73FB7B23
:101A4C0018461437BD4680BC704780B483B000AFD5
:101A5C0078600B467B8013467B707B78002B03D021
:101A6C007A887B681A6103E07B881A047B681A61A8
:101A7C0000BF0C37BD4680BC704780B485B000AF4A
:101A8C0078600B467B807B68DB68FB607A88FB6840
:101A9C0013401A04FB68D9437B880B401A437B68BC
:101AAC001A6100BF1437BD4680BC704780B582B048
:101ABC0000AF0346FB80084B5A69FB881340002B90
:101ACC0006D0054AFB885361FB88184600F006F8DF
:101ADC0000BF0837BD4680BD0004014080B483B010
:101AEC0000AF0346FB8000BF0C37BD4680BC70477F
:101AFC0080B586B000AF78607B68002B01D10123E4
:101B0C006CE27B681B6803F00103002B00F08780FC
:101B1C00924B5B6803F00C03042B0CD08F4B5B686F
:101B2C0003F00C03082B12D18C4B5B6803F480334D
:101B3C00B3F5803F0BD1894B1B6803F40033002BAA
:101B4C006CD07B685B68002B68D1012346E27B6814
:101B5C005B68B3F5803F06D1804B1B687F4A43F42A
:101B6C00803313602EE07B685B68002B0CD17B4BC1
:101B7C001B687A4A23F480331360784B1B68774ACE
:101B8C0023F4802313601DE07B685B68B3F5A02F02
:101B9C000CD1724B1B68714A43F4802313606F4B5A
:101BAC001B686E4A43F4803313600BE06B4B1B686D
:101BBC006A4A23F480331360684B1B68674A23F42A
:101BCC00802313607B685B68002B13D0FFF78AFCC3
:101BDC00386108E0FFF786FC02463B69D31A642B98
:101BEC0001D90323FAE15D4B1B6803F40033002B8E
:101BFC00F0D014E0FFF776FC386108E0FFF772FCD8
:101C0C0002463B69D31A642B01D90323E6E1534BFB
:101C1C001B6803F40033002BF0D100E000BF7B689D
:101C2C001B6803F00203002B63D04C4B5B6803F082
:101C3C000C03002B0BD0494B5B6803F00C03082BF7
:101C4C001CD1464B5B6803F48033002B16D1434BFD
:101C5C001B6803F00203002B05D07B681B69012B6A
:101C6C0001D00123BAE13D4B1B6823F0F8027B68DD
:101C7C005B69DB00394913430B603AE07B681B69F5
:101C8C00002B20D0364B01221A60FFF72BFC386159
:101C9C0008E0FFF727FC02463B69D31A022B01D957
:101CAC0003239BE12D4B1B6803F00203002BF0D0A8
:101CBC002A4B1B6823F0F8027B685B69DB00274921
:101CCC0013430B6015E0264B00221A60FFF70AFC49
:101CDC00386108E0FFF706FC02463B69D31A022B79
:101CEC0001D903237AE11D4B1B6803F00203002B7F
:101CFC00F0D17B681B6803F00803002B3AD07B689B
:101D0C009B69002B19D0174B01221A60FFF7EAFBD5
:101D1C00386108E0FFF7E6FB02463B69D31A022B59
:101D2C0001D903235AE10D4B5B6A03F00203002B2C
:101D3C00F0D0012000F0D8FA1CE00A4B00221A6007
:101D4C00FFF7D0FB38610FE0FFF7CCFB02463B6995
:101D5C00D31A022B08D9032340E100BF0010024024
:101D6C0000004242800442429E4B5B6A03F0020335
:101D7C00002BE9D17B681B6803F00403002B00F0F7
:101D8C00A6800023FB75974BDB6903F08053002B77
:101D9C000DD1944BDB69934A43F08053D361914B43
:101DAC00DB6903F08053BB60BB680123FB758E4B72
:101DBC001B6803F48073002B18D18B4B1B688A4A69
:101DCC0043F480731360FFF78DFB386108E0FFF775
:101DDC0089FB02463B69D31A642B01D90323FDE02E
:101DEC00814B1B6803F48073002BF0D07B68DB689D
:101DFC00012B06D17B4B1B6A7A4A43F00103136219
:101E0C002DE07B68DB68002B0CD1764B1B6A754A86
:101E1C0023F001031362734B1B6A724A23F0040311
:101E2C0013621CE07B68DB68052B0CD16D4B1B6AC5
:101E3C006C4A43F0040313626A4B1B6A694A43F011
:101E4C00010313620BE0674B1B6A664A23F0010324
:101E5C001362644B1B6A634A23F0040313627B68AE
:101E6C00DB68002B15D0FFF73DFB38610AE0FFF76C
:101E7C0039FB02463B69D31A41F28832934201D9AD
:101E8C000323ABE0574B1B6A03F00203002BEED08D
:101E9C0014E0FFF727FB38610AE0FFF723FB02464B
:101EAC003B69D31A41F28832934201D9032395E05E
:101EBC004C4B1B6A03F00203002BEED1FB7D012B74
:101ECC0005D1484BDB69474A23F08053D3617B68CB
:101EDC00DB69002B00F08180424B5B6803F00C0344
:101EEC00082B61D07B68DB69022B46D13F4B00226B
:101EFC001A60FFF7F7FA386108E0FFF7F3FA0246C9
:101F0C003B69D31A022B01D9032367E0354B1B68BD
:101F1C0003F00073002BF0D17B681B6AB3F5803F94
:101F2C0008D1304B5B6823F400327B689B682D49E9
:101F3C0013434B602B4B5B6823F474127B68196A58
:101F4C007B685B6A0B43274913434B60274B012289
:101F5C001A60FFF7C7FA386108E0FFF7C3FA0246C8
:101F6C003B69D31A022B01D9032337E01D4B1B68A5
:101F7C0003F00073002BF0D02FE01C4B00221A60F2
:101F8C00FFF7B0FA386108E0FFF7ACFA02463B699C
:101F9C00D31A022B01D9032320E0124B1B6803F048
:101FAC000073002BF0D118E07B68DB69012B01D1A9
:101FBC00012313E00B4B5B68FB60FB6803F480327E
:101FCC007B681B6A9A4206D1FB6803F470127B682B
:101FDC005B6A9A4201D0012300E0002318461837AF
:101FEC00BD4680BD001002400070004060004242BF
:101FFC0080B584B000AF786039607B68002B01D16C
:10200C000123D0E06A4B1B6803F007033A689A423D
:10201C0010D9674B1B6823F0070265493B681343D3
:10202C000B60634B1B6803F007033A689A4201D0BC
:10203C000123B8E07B681B6803F00203002B20D05F
:10204C007B681B6803F00403002B05D0594B5B68BD
:10205C00584A43F4E06353607B681B6803F0080341
:10206C00002B05D0534B5B68524A43F460535360CA
:10207C00504B5B6823F0F0027B689B684D4913431F
:10208C004B607B681B6803F00103002B40D07B681E
:10209C005B68012B07D1474B1B6803F40033002B03
:1020AC0015D101237FE07B685B68022B07D1414B84
:1020BC001B6803F00073002B09D1012373E03D4B27
:1020CC001B6803F00203002B01D101236BE0394B99
:1020DC005B6823F003027B685B68364913434B60F3
:1020EC00FFF700FAF8600AE0FFF7FCF90246FB681C
:1020FC00D31A41F28832934201D9032353E02D4B7A
:10210C005B6803F00C027B685B689B009A42EBD126
:10211C00274B1B6803F007033A689A4210D2244BF2
:10212C001B6823F0070222493B6813430B60204BCA
:10213C001B6803F007033A689A4201D0012332E08E
:10214C007B681B6803F00403002B08D0194B5B68F9
:10215C0023F4E0627B68DB68164913434B607B68B1
:10216C001B6803F00803002B09D0124B5B6823F4A7
:10217C0060527B681B69DB000E4913434B6000F017
:10218C0021F802460B4B5B681B0903F00F030A494D
:10219C00CB5C22FA03F3094A1360094B1B681846FF
:1021AC00FFF75EF9002318461037BD4680BD00BF0F
:1021BC00002002400010024024340008840000205B
:1021CC008800002090B48AB000AF2A4B3C1D0FCB86
:1021DC0084E80F0040F201233B800023FB610023C5
:1021EC00BB6100237B6200237B6100233B62224B9B
:1021FC005B68FB61FB6903F00C03042B02D0082B1A
:10220C0003D02DE01D4B3B622DE0FB699B0C03F0D2
:10221C000F0307F12802134413F8243C7B61FB697C
:10222C0003F48033002B13D0134B5B685B0C03F06F
:10223C00010307F12802134413F8283CBB617B69A6
:10224C000E4A02FB03F2BB69B2FBF3F37B6204E0C0
:10225C007B690B4A02FB03F37B627B6A3B6202E005
:10226C00064B3B6200BF3B6A18462837BD4690BC04
:10227C00704700BF143400080010024000127A00AE
:10228C0000093D0080B400AF024B1B681846BD46E8
:10229C0080BC70478400002080B500AFFFF7F2FFD0
:1022AC000246054B5B681B0A03F007030349CB5C32
:1022BC0022FA03F3184680BD0010024034340008A3
:1022CC0080B500AFFFF7DEFF0246054B5B68DB0A0B
:1022DC0003F007030349CB5C22FA03F3184680BDD5
:1022EC00001002403434000880B485B000AF786030
:1022FC000A4B1B680A4AA2FB03235B0A7A6802FB9F
:10230C0003F3FB6000BFFB685A1EFA60002BF9D187
:10231C0000BF00BF1437BD4680BC7047840000204E
:10232C00D34D621080B582B000AF78607B68002B13
:10233C0001D1012341E07B6893F83D30DBB2002BE7
:10234C0006D17B68002283F83C207868FEF752FFA8
:10235C007B68022283F83D207B681A687B68043313
:10236C001946104600F028FC7B68012283F84620B1
:10237C007B68012283F83E207B68012283F83F2092
:10238C007B68012283F840207B68012283F841207E
:10239C007B68012283F842207B68012283F843206A
:1023AC007B68012283F844207B68012283F8452056
:1023BC007B68012283F83D20002318460837BD4670
:1023CC0080BD000080B485B000AF78607B6893F866
:1023DC003D30DBB2012B01D001233AE07B680222B5
:1023EC0083F83D207B681B68DA687B681B6842F0C9
:1023FC000102DA607B681B68184A93420ED07B6836
:10240C001B68B3F1804F09D07B681B68144A934258
:10241C0004D07B681B68134A934211D17B681B68FC
:10242C009B6803F00703FB60FB68062B10D07B68EE
:10243C001B681A687B681B6842F001021A6007E08F
:10244C007B681B681A687B681B6842F001021A6083
:10245C00002318461437BD4680BC7047002C014041
:10246C00000400400008004080B582B000AF7860E6
:10247C007B68002B01D1012341E07B6893F83D3050
:10248C00DBB2002B06D17B68002283F83C207868F5
:10249C0000F039F87B68022283F83D207B681A68CB
:1024AC007B6804331946104600F086FB7B680122DA
:1024BC0083F846207B68012283F83E207B6801224A
:1024CC0083F83F207B68012283F840207B6801223F
:1024DC0083F841207B68012283F842207B6801222B
:1024EC0083F843207B68012283F844207B68012217
:1024FC0083F845207B68012283F83D200023184691
:10250C000837BD4680BD80B483B000AF786000BF93
:10251C000C37BD4680BC704780B584B000AF786086
:10252C0039603B68002B09D17B6893F83E30DBB2F5
:10253C00012B14BF01230023DBB222E03B68042BE8
:10254C0009D17B6893F83F30DBB2012B14BF012318
:10255C000023DBB215E03B68082B09D17B6893F8AC
:10256C004030DBB2012B14BF01230023DBB208E0A7
:10257C007B6893F84130DBB2012B14BF012300239D
:10258C00DBB2002B01D001235EE03B68002B04D1B1
:10259C007B68022283F83E2013E03B68042B04D1B5
:1025AC007B68022283F83F200BE03B68082B04D1A8
:1025BC007B68022283F8402003E07B68022283F8C8
:1025CC0041207B681B6801223968184600F074FDB5
:1025DC007B681B681E4A934207D17B681B685A6C48
:1025EC007B681B6842F400425A647B681B68184A7B
:1025FC0093420ED07B681B68B3F1804F09D07B6887
:10260C001B68144A934204D07B681B68124A93429D
:10261C0011D17B681B689B6803F00703FB60FB68A8
:10262C00062B10D07B681B681A687B681B6842F00D
:10263C0001021A6007E07B681B681A687B681B68DC
:10264C0042F001021A60002318461037BD4680BDC7
:10265C00002C0140000400400008004080B582B00E
:10266C0000AF78607B681B681B6903F00203022BC8
:10267C0022D17B681B68DB6803F00203022B1BD1A1
:10268C007B681B686FF002021A617B6801221A7763
:10269C007B681B689B6903F00303002B03D07868ED
:1026AC0000F06FFA05E0786800F062FA786800F0E4
:1026BC0071FA7B6800221A777B681B681B6903F030
:1026CC000403042B22D17B681B68DB6803F0040332
:1026DC00042B1BD17B681B686FF004021A617B68AA
:1026EC0002221A777B681B689B6903F44073002BEA
:1026FC0003D0786800F045FA05E0786800F038FA05
:10270C00786800F047FA7B6800221A777B681B68B0
:10271C001B6903F00803082B22D17B681B68DB685C
:10272C0003F00803082B1BD17B681B686FF00802B1
:10273C001A617B6804221A777B681B68DB6903F0DB
:10274C000303002B03D0786800F01BFA05E07868CF
:10275C0000F00EFA786800F01DFA7B6800221A77F8
:10276C007B681B681B6903F01003102B22D17B685C
:10277C001B68DB6803F01003102B1BD17B681B68F4
:10278C006FF010021A617B6808221A777B681B684D
:10279C00DB6903F44073002B03D0786800F0F1F987
:1027AC0005E0786800F0E4F9786800F0F3F97B68EC
:1027BC0000221A777B681B681B6903F00103012B4D
:1027CC000ED17B681B68DB6803F00103012B07D17A
:1027DC007B681B686FF001021A617868FEF7C4FA17
:1027EC007B681B681B6903F08003802B0ED17B6810
:1027FC001B68DB6803F08003802B07D17B681B68A8
:10280C006FF080021A61786800F0E1FC7B681B684D
:10281C001B6903F04003402B0ED17B681B68DB68FF
:10282C0003F04003402B07D17B681B686FF040021C
:10283C001A61786800F0B7F97B681B681B6903F0B4
:10284C002003202B0ED17B681B68DB6803F0200370
:10285C00202B07D17B681B686FF020021A61786807
:10286C0000F0ACFC00BF0837BD4680BD80B584B01D
:10287C0000AFF860B9607A60FB6893F83C30012BCC
:10288C0001D10223ACE0FB68012283F83C207B6879
:10289C000C2B00F29F8001A252F823F0DD280008D7
:1028AC00E1290008E1290008E12900081D29000898
:1028BC00E1290008E1290008E12900085F29000846
:1028CC00E1290008E1290008E12900089F290008F6
:1028DC00FB681B68B968184600F0D0F9FB681B68E8
:1028EC009A69FB681B6842F008029A61FB681B68D6
:1028FC009A69FB681B6822F004029A61FB681B68EA
:10290C009969BB681A69FB681B680A439A6162E0A3
:10291C00FB681B68B968184600F016FAFB681B6860
:10292C009A69FB681B6842F400629A61FB681B6839
:10293C009A69FB681B6822F480629A61FB681B68C9
:10294C009969BB681B691A02FB681B680A439A6188
:10295C0041E0FB681B68B968184600F05FFAFB6839
:10296C001B68DA69FB681B6842F00802DA61FB68D5
:10297C001B68DA69FB681B6822F00402DA61FB68E9
:10298C001B68D969BB681A69FB681B680A43DA6162
:10299C0021E0FB681B68B968184600F0A9FAFB68CF
:1029AC001B68DA69FB681B6842F40062DA61FB6839
:1029BC001B68DA69FB681B6822F48062DA61FB68C9
:1029CC001B68D969BB681B691A02FB681B680A4340
:1029DC00DA6100E000BFFB68002283F83C20002392
:1029EC0018461037BD4680BD80B584B000AF786006
:1029FC0039607B6893F83C30012B01D10223B3E0A2
:102A0C007B68012283F83C207B68022283F83D20FE
:102A1C007B681B689B68FB60FB6823F07703FB609B
:102A2C00FB6823F47F43FB607B681B68FA689A6041
:102A3C003B681B68B3F5005F3ED0B3F5005F00F256
:102A4C008780B3F5805F00F08580B3F5805F7FD819
:102A5C00702B1AD0702B7BD8602B50D0602B77D872
:102A6C00502B3CD0502B73D8402B58D0402B6FD8C8
:102A7C00302B64D0302B6BD8202B60D0202B67D818
:102A8C00002B5CD0102B5AD062E07B6818683B6836
:102A9C0099683B685A683B68DB6800F0EEFA7B6823
:102AAC001B689B68FB60FB6843F07703FB607B68EB
:102ABC001B68FA689A604EE07B6818683B689968F6
:102ACC003B685A683B68DB6800F0D7FA7B681B6888
:102ADC009A687B681B6842F480429A603BE07B6892
:102AEC0018683B6859683B68DB681A4600F04EFA78
:102AFC007B681B685021184600F0A5FA2BE07B6818
:102B0C0018683B6859683B68DB681A4600F06CFA39
:102B1C007B681B686021184600F095FA1BE07B6807
:102B2C0018683B6859683B68DB681A4600F02EFA57
:102B3C007B681B684021184600F085FA0BE07B6827
:102B4C001A683B681B681946104600F07CFA02E0D4
:102B5C0000BF00E000BF7B68012283F83D207B684A
:102B6C00002283F83C20002318461037BD4680BD58
:102B7C0080B483B000AF786000BF0C37BD4680BC1A
:102B8C00704780B483B000AF786000BF0C37BD468F
:102B9C0080BC704780B483B000AF786000BF0C3746
:102BAC00BD4680BC704780B483B000AF786000BF76
:102BBC000C37BD4680BC704780B485B000AF7860E0
:102BCC0039607B681B68FB607B68294A93420BD099
:102BDC007B68B3F1804F07D07B68264A934203D0C1
:102BEC007B68254A934208D1FB6823F07003FB6095
:102BFC003B685B68FA681343FB607B681C4A934232
:102C0C000BD07B68B3F1804F07D07B68194A934295
:102C1C0003D07B68184A934208D1FB6823F44073B5
:102C2C00FB603B68DB68FA681343FB60FB6823F0CE
:102C3C0080023B685B691343FB607B68FA681A602F
:102C4C003B689A687B68DA623B681A687B689A62B0
:102C5C007B68074A934203D13B681A697B681A6305
:102C6C007B6801225A6100BF1437BD4680BC704797
:102C7C00002C0140000400400008004080B487B0E4
:102C8C0000AF786039607B681B6A23F001027B68B7
:102C9C001A627B681B6A7B617B685B683B617B6843
:102CAC009B69FB60FB6823F07003FB60FB6823F0FF
:102CBC000303FB603B681B68FA681343FB607B698A
:102CCC0023F002037B613B689B687A6913437B6149
:102CDC007B681C4A93420CD17B6923F008037B610F
:102CEC003B68DB687A6913437B617B6923F00403DF
:102CFC007B617B68134A934211D13B6923F4807347
:102D0C003B613B6923F400733B613B685B693A6947
:102D1C0013433B613B689B693A6913433B617B6896
:102D2C003A695A607B68FA689A613B685A687B68B2
:102D3C005A637B687A691A6200BF1C37BD4680BC37
:102D4C00704700BF002C014080B487B000AF7860A2
:102D5C0039607B681B6A23F010027B681A627B68FF
:102D6C001B6A7B617B685B683B617B689B69FB6072
:102D7C00FB6823F4E043FB60FB6823F44073FB60C7
:102D8C003B681B681B02FA681343FB607B6923F0EA
:102D9C0020037B613B689B681B017A6913437B6151
:102DAC007B681D4A93420DD17B6923F080037B61C4
:102DBC003B68DB681B017A6913437B617B6923F0F9
:102DCC0040037B617B68144A934213D13B6923F423
:102DDC0080633B613B6923F400633B613B685B6947
:102DEC009B003A6913433B613B689B699B003A69C2
:102DFC0013433B617B683A695A607B68FA689A6155
:102E0C003B685A687B689A637B687A691A6200BF70
:102E1C001C37BD4680BC7047002C014080B487B085
:102E2C0000AF786039607B681B6A23F480727B6822
:102E3C001A627B681B6A7B617B685B683B617B68A1
:102E4C00DB69FB60FB6823F07003FB60FB6823F01D
:102E5C000303FB603B681B68FA681343FB607B69E8
:102E6C0023F400737B613B689B681B027A691343F4
:102E7C007B617B681D4A93420DD17B6923F400630F
:102E8C007B613B68DB681B027A6913437B617B695E
:102E9C0023F480637B617B68144A934213D13B69B2
:102EAC0023F480533B613B6923F400533B613B6843
:102EBC005B691B013A6913433B613B689B691B01CE
:102ECC003A6913433B617B683A695A607B68FA68DC
:102EDC00DA613B685A687B68DA637B687A691A62E4
:102EEC0000BF1C37BD4680BC704700BF002C0140A2
:102EFC0080B487B000AF786039607B681B6A23F4BC
:102F0C0080527B681A627B681B6A3B617B685B68DA
:102F1C007B617B68DB69FB60FB6823F4E043FB604F
:102F2C00FB6823F44073FB603B681B681B02FA6868
:102F3C001343FB603B6923F400533B613B689B6884
:102F4C001B033A6913433B617B680F4A934209D1D7
:102F5C007B6923F480437B613B685B699B017A69E5
:102F6C0013437B617B687A695A607B68FA68DA6123
:102F7C003B685A687B681A647B683A691A6200BFBE
:102F8C001C37BD4680BC7047002C014080B487B014
:102F9C0000AFF860B9607A60FB681B6A7B61FB6804
:102FAC001B6A23F00102FB681A62FB689B693B6198
:102FBC003B6923F0F0033B617B681B013A691343C7
:102FCC003B617B6923F00A037B617A69BB6813431D
:102FDC007B61FB683A699A61FB687A691A6200BF87
:102FEC001C37BD4680BC704780B487B000AFF8601A
:102FFC00B9607A60FB681B6A23F01002FB681A62E6
:10300C00FB689B697B61FB681B6A3B617B6923F4F2
:10301C0070437B617B681B037A6913437B613B695B
:10302C0023F0A0033B61BB681B013A6913433B616E
:10303C00FB687A699A61FB683A691A6200BF1C37AF
:10304C00BD4680BC704780B485B000AF78603960F5
:10305C007B689B68FB60FB6823F07003FB603A683D
:10306C00FB68134343F00703FB607B68FA689A60C4
:10307C0000BF1437BD4680BC704780B487B000AF2A
:10308C00F860B9607A603B60FB689B687B617B6928
:10309C0023F47F437B613B681A027B681A43BB684D
:1030AC0013437A6913437B61FB687A699A6000BFAA
:1030BC001C37BD4680BC704780B487B000AFF86049
:1030CC00B9607A60BB6803F01F03012202FA03F3B4
:1030DC007B61FB681A6A7B69DB431A40FB681A62E6
:1030EC00FB681A6ABB6803F01F03796801FA03F3E3
:1030FC001A43FB681A6200BF1C37BD4680BC704780
:10310C0080B485B000AF786039607B6893F83C3050
:10311C00012B01D1022346E07B68012283F83C207D
:10312C007B68022283F83D207B681B685B68FB6030
:10313C007B681B689B68BB60FB6823F07003FB60BB
:10314C003B681B68FA681343FB607B681B68FA6872
:10315C005A607B681B68164A93420ED07B681B68CA
:10316C00B3F1804F09D07B681B68124A934204D09C
:10317C007B681B68104A93420CD1BB6823F0800318
:10318C00BB603B685B68BA681343BB607B681B68B9
:10319C00BA689A607B68012283F83D207B68002224
:1031AC0083F83C20002318461437BD4680BC70477A
:1031BC00002C0140000400400008004080B483B0A3
:1031CC0000AF786000BF0C37BD4680BC704780B440
:1031DC0083B000AF786000BF0C37BD4680BC704731
:1031EC0080B582B000AF78607B68002B01D10123E1
:1031FC003FE07B6893F83D30DBB2002B06D17B6857
:10320C00002283F83C207868FEF766F87B6824225D
:10321C0083F83D207B681B68DA687B681B6822F4A6
:10322C000052DA60786800F029F87B681B681A692C
:10323C007B681B6822F490421A617B681B685A6990
:10324C007B681B6822F02A025A617B681B68DA686B
:10325C007B681B6842F40052DA607B6800221A64B7
:10326C007B68202283F83D207B68202283F83E2057
:10327C00002318460837BD4680BD000080B584B0D9
:10328C0000AF78607B681B681B6923F440517B6836
:10329C00DA687B681B680A431A617B689A687B68EA
:1032AC001B691A437B685B691343BB607B681B68B3
:1032BC00DB6823F4B05323F00C037A681268B96806
:1032CC000B43D3607B681B685B6923F440717B689C
:1032DC009A697B681B680A435A617B681B682C4A95
:1032EC00934203D1FEF7ECFFF86002E0FEF7D4FF47
:1032FC00F860FA6813469B0013449A001A447B68E2
:10330C005B689B00B2FBF3F3224AA2FB03235B092D
:10331C001901FA6813469B0013449A001A447B68FF
:10332C005B689B00B2FBF3F21A4BA3FB02035B0935
:10333C00642000FB03F3D31A1B013233154AA2FBA2
:10334C0003235B0903F0F0031944FA6813469B004E
:10335C0013449A001A447B685B689B00B2FBF3F23F
:10336C000C4BA3FB02035B09642000FB03F3D31A91
:10337C001B013233074AA2FB03235B0903F00F0244
:10338C007B681B680A449A6000BF1037BD4680BD3D
:10339C00003801401F85EB5170B500260C4D0D4CCB
:1033AC00641BA410A64209D100F022F800260A4D95
:1033BC000A4C641BA410A64205D170BD55F8043B01
:1033CC0098470136EEE755F8043B98470136F2E78B
:1033DC003C3400083C3400083C34000840340008FD
:1033EC0003460244934200D1704703F8011BF9E7EE
:1033FC00F8B500BFF8BC08BC9E467047F8B500BFD6
:08340C00F8BC08BC9E467047A5
:1034140002030405060708090A0B0C0D0E0F101011
:103424000000000000000000010203040607080970
:08343400000000000102030486
:04343C003101000852
:043440000D01000872
:103444000100000001000000010000000100000074
:103454000100000001000000010000000100000064
:103464000100000001000000010000000100000054
:103474000100000001000000010000000100000044
:103484002C0100002C0100002C0100002C01000084
:1034940010270000010000001027000001000000B8
:1034A400140000001F0000000500000003000000DD
:1034B4000200000001000000010000000100000003
:1034C4000A0000000024F4001000000001000000C5
:04000005080013F5E7
:00000001FF
